:020000040000FA
:100000000C945D000C9485000C9485000C94850084
:100010000C9485000C9485000C9485000C9485004C
:100020000C9485000C9485000C9485000C9485003C
:100030000C9485000C9485000C9485000C9485002C
:100040000C949E030C9485000C946C030C94460352
:100050000C9485000C9485000C9485000C9485000C
:100060000C9485000C94850000000008000201003B
:100070000003040700000000000000000000000072
:10008000250028002B0000000000240027002A0083
:10009000040404040404040402020202020203032E
:1000A0000303030301020408102040800102040836
:1000B0001020010204081020E80311241FBECFEF16
:1000C000D8E0DEBFCDBF11E0A0E0B1E0EAE1FAE0A8
:1000D00002C005900D92AE31B107D9F721E0AEE133
:1000E000B1E001C01D92AD3DB207E1F710E0CDE5F2
:1000F000D0E004C02197FE010E940505CC35D10750
:10010000C9F70E9433040C940B050C94000090E096
:10011000FC01EC55FF4F249180579F4FFC018491C7
:10012000882399F090E0880F991FFC01EA57FF4F50
:10013000A591B491FC01E458FF4F859194918FB73C
:10014000F894EC91E22BEC938FBF0895AF92BF929D
:10015000CF92DF92EF92FF920F931F93CF93DF9393
:100160006C017B018B01040F151FEB015E01AE18C2
:10017000BF08C017D10759F06991D601ED91FC91E4
:100180000190F081E02DC6010995892B79F7C50111
:10019000DF91CF911F910F91FF90EF90DF90CF9063
:1001A000BF90AF900895FC01538D448D252F30E012
:1001B000842F90E0821B930B541710F0CF96089574
:1001C00001970895FC01918D828D981761F0A28DA1
:1001D000AE0FBF2FB11D5D968C91928D9F5F9F7367
:1001E000928F90E008958FEF9FEF0895FC01918D1D
:1001F000828D981731F0828DE80FF11D858D90E08A
:1002000008958FEF9FEF0895FC01918D228D892F26
:1002100090E0805C9F4F821B91098F73992708950E
:1002200088E291E00E94040121E0892B09F420E09A
:10023000822F089580E090E0892B29F00E94100120
:1002400081110C9400000895FC01A48DA80FB92F12
:10025000B11DA35ABF4F2C91848D90E001968F73EE
:100260009927848FA689B7892C93A089B1898C910D
:10027000837080648C93938D848D981306C002885C
:10028000F389E02D80818F7D80830895EF92FF9226
:100290000F931F93CF93DF93EC0181E0888F9B8DA9
:1002A0008C8D98131AC0E889F989808185FF15C063
:1002B0009FB7F894EE89FF896083E889F989808186
:1002C0008370806480839FBF81E090E0DF91CF9155
:1002D0001F910F91FF90EF900895F62E0B8D10E077
:1002E0000F5F1F4F0F731127E02E8C8D8E110CC0E6
:1002F0000FB607FCFACFE889F989808185FFF5CF31
:10030000CE010E942401F1CFEB8DEC0FFD2FF11DEA
:10031000E35AFF4FF0829FB7F8940B8FEA89FB896D
:1003200080818062CFCFCF93DF93EC01888D8823CB
:10033000B9F0AA89BB89E889F9898C9185FD03C048
:10034000808186FD0DC00FB607FCF7CF8C9185FF2D
:10035000F2CF808185FFEDCFCE010E942401E9CF4D
:10036000DF91CF91089590E0FC01E859FF4F24916F
:10037000FC01EC55FF4F3491FC01E057FF4FE49135
:10038000EE23C9F0222339F0233001F1A8F4213003
:1003900019F1223029F1F0E0EE0FFF1FE458FF4F72
:1003A000A591B4918FB7F894EC91611126C0309566
:1003B0003E233C938FBF08952730A9F02830C9F021
:1003C000243049F7809180008F7D03C080918000A8
:1003D0008F7780938000DFCF84B58F7784BDDBCFAC
:1003E00084B58F7DFBCF8091B0008F778093B00074
:1003F000D2CF8091B0008F7DF9CF3E2BDACF089518
:1004000090E080E00895CF93DF93EC0160E08E816F
:100410000E94B30161E08E810E94B30160E08E8191
:100420000E94B3018BE891E00197F1F7DF91CF9142
:100430000895CF92DF92EF92FF920F931F93CF9385
:10044000DF936C017C0187E0E80EF11CD0E0C0E096
:10045000062F10E0B8010C2E02C0759567950A941E
:10046000E2F76170F70181917F010E94B30121964B
:10047000C430D10579F7C601DF91CF911F910F915B
:10048000FF90EF90DF90CF900C940302CF92DF9219
:10049000EF92FF920F931F93CF93DF93EC01F62E11
:1004A000642F8C810E94B3018D818F3F19F060E031
:1004B0000E94B3010F2D10E08F8584FF25C06E01CF
:1004C00087E0C80ED11CF12CE12CB8010E2C02C023
:1004D000759567950A94E2F76170F60181916F0155
:1004E0000E94B301FFEFEF1AFF0A88E0E816F1045B
:1004F00061F7CE01DF91CF911F910F91FF90EF90A7
:10050000DF90CF900C940302B80184E07595679555
:100510008A95E1F7CE010E9419026F2DCE01DF917D
:10052000CF911F910F91FF90EF90DF90CF900C949F
:10053000190240E0682F85EC91E00C944602CF93BD
:10054000DF93623029F49091D40198609093D401A4
:100550006093D8011092D90190E49093DA018093CE
:10056000DB01805C8093DC018091C9010E948700DF
:100570008091CA018F3F11F00E9487008091CB01CA
:100580000E948700C5ECD1E09E01255C314080913E
:10059000D40184FD0AC084E090E021962817390731
:1005A0003CF48E810E948700EFCF88E090E0F5CF89
:1005B0008BE39DE00197F1F760E08091C9010E9413
:1005C000B30160E08091CB010E94B3018091CA0128
:1005D0008F3F19F060E00E94B3018091D40184FD47
:1005E00039C063E085EC91E00E941902CBE4D6E4C7
:1005F000CE010197F1F763E085EC91E00E941902CA
:100600002197F1F763E085EC91E00E94190283E500
:1006100092E00197F1F762E085EC91E00E94190207
:100620008091D40180620E94990284E08093D50178
:100630008CE00E94990281E00E9499028BE39FE185
:100640000197F1F782E08093D60186E0DF91CF91A8
:100650000C94990280620E9499028BE496E40197BF
:10066000F1F78091D40180620E94990283E592E0C3
:100670000197F1F78091D40180620E949902D0CF56
:1006800041E00E94460281E090E008951F920F929F
:100690000FB60F9211242F933F934F935F936F9355
:1006A0007F938F939F93AF93BF93EF93FF9388E2D2
:1006B00091E00E942401FF91EF91BF91AF919F9132
:1006C0008F917F916F915F914F913F912F910F90FB
:1006D0000FBE0F901F9018951F920F920FB60F929A
:1006E00011242F938F939F93EF93FF93E091380101
:1006F000F09139018081E0913E01F0913F0182FD4E
:100700001BC09081809141018F5F8F7320914201C6
:10071000821741F0E0914101F0E0E85DFE4F958FD6
:1007200080934101FF91EF919F918F912F910F90B5
:100730000FBE0F901F9018958081F4CF1F920F92DB
:100740000FB60F9211242F933F938F939F93AF93E4
:10075000BF938091230190912401A0912501B09134
:1007600026013091220123E0230F2D3758F5019601
:10077000A11DB11D20932201809323019093240198
:10078000A0932501B093260180911E0190911F0135
:10079000A0912001B09121010196A11DB11D80936E
:1007A0001E0190931F01A0932001B0932101BF91DE
:1007B000AF919F918F913F912F910F900FBE0F900E
:1007C0001F90189526E8230F0296A11DB11DD2CFC8
:1007D000E8E2F1E01382128288EE93E0A0E0B0E05C
:1007E00084839583A683B78384E091E0918380839B
:1007F00085EC90E09587848784EC90E097878687E6
:1008000080EC90E0918B808B81EC90E0938B828BDD
:1008100082EC90E0958B848B86EC90E0978B868BB6
:10082000118E128E138E148EE5ECF1E0138212827B
:1008300086E191E0918380838CE084838BE08583E3
:100840008AE0868385E0878384E0808783E08187F0
:1008500082E082871386148615861686178661E0E5
:1008600080E10C949F02789484B5826084BD84B545
:10087000816084BD85B5826085BD85B5816085BD9B
:1008800080916E00816080936E0010928100809153
:1008900081008260809381008091810081608093DB
:1008A0008100809180008160809380008091B10000
:1008B00084608093B1008091B00081608093B0002B
:1008C00080917A00846080937A0080917A008260BF
:1008D00080937A0080917A00816080937A00809181
:1008E0007A00806880937A001092C10062E080E113
:1008F0000E949F0282E00E9499028BE39FE1019790
:10090000F1F7E0913801F091390182E08083E091C4
:100910003401F09135011082E0913601F0913701F8
:100920008FEC808310924001E0913C01F0913D01F9
:1009300086E08083E0913A01F0913B018081806103
:100940008083E0913A01F0913B018081886080834F
:10095000E0913A01F0913B01808180688083E091D1
:100960003A01F0913B0180818F7D80830BE31FE191
:1009700080E0E82E80E0F82E88E291E00E940401F9
:10098000892BF1F088E291E00E94E200C82F809369
:10099000270180EE8C0F8F3568F46C2F85EC91E089
:1009A0000E944003C33041F5E091D801E23010F5D8
:1009B000E15018C0C13071F462E084E10E949F02EE
:1009C000E114F104C9F20E9410018823A9F20E94E7
:1009D0000000D2CFC23031F7E1E08091D80181111F
:1009E000E0E0E195F0E0EB53FE4F848980680E94DF
:1009F0009902E6CFE1E0F6CFC43011F781E00E9422
:100A00009902C8010197F1F7DBCFEE0FFF1F0590A8
:100A1000F491E02D0994F894FFCF00000000460106
:100A2000A600D30093010401E200F60000000000DC
:080A30004003A6000002FF01D3
:107E0000112484B714BE81FFF0D085E080938100F7
:107E100082E08093C00088E18093C10086E0809377
:107E2000C20080E18093C4008EE0C9D0259A86E02C
:107E300020E33CEF91E0309385002093840096BBD3
:107E4000B09BFECF1D9AA8958150A9F7CC24DD24C4
:107E500088248394B5E0AB2EA1E19A2EF3E0BF2EE7
:107E6000A2D0813461F49FD0082FAFD0023811F036
:107E7000013811F484E001C083E08DD089C08234E0
:107E800011F484E103C0853419F485E0A6D080C0E4
:107E9000853579F488D0E82EFF2485D0082F10E0AE
:107EA000102F00270E291F29000F111F8ED06801E7
:107EB0006FC0863521F484E090D080E0DECF843638
:107EC00009F040C070D06FD0082F6DD080E0C81688
:107ED00080E7D80618F4F601B7BEE895C0E0D1E017
:107EE00062D089930C17E1F7F0E0CF16F0E7DF06D8
:107EF00018F0F601B7BEE89568D007B600FCFDCFD4
:107F0000A601A0E0B1E02C9130E011968C91119780
:107F100090E0982F8827822B932B1296FA010C0160
:107F200087BEE89511244E5F5F4FF1E0A038BF0790
:107F300051F7F601A7BEE89507B600FCFDCF97BE46
:107F4000E89526C08437B1F42ED02DD0F82E2BD052
:107F50003CD0F601EF2C8F010F5F1F4F84911BD097
:107F6000EA94F801C1F70894C11CD11CFA94CF0C13
:107F7000D11C0EC0853739F428D08EE10CD085E9AC
:107F80000AD08FE07ACF813511F488E018D01DD067
:107F900080E101D065CF982F8091C00085FFFCCF94
:107FA0009093C60008958091C00087FFFCCF809118
:107FB000C00084FD01C0A8958091C6000895E0E648
:107FC000F0E098E1908380830895EDDF803219F02E
:107FD00088E0F5DFFFCF84E1DECF1F93182FE3DFCA
:107FE0001150E9F7F2DF1F91089580E0E8DFEE27F6
:047FF000FF270994CA
:027FFE00040479
:00000001FF
